S02400006275696C645C62696E5C52656C656173655C48656C6C6F576F726C642E73726563E6
S113000000800020510400009504000095040000C5
S11300109504000095040000950400000000000011
S11300200000000000000000000000009504000033
S113003095040000000000009504000095040000F1
S11300409504000095040000950400009504000048
S11300509504000095040000950400009504000038
S11300609504000095040000950400009504000028
S11300709504000095040000950400009504000018
S11300809504000095040000950400009504000008
S113009095040000950400009504000095040000F8
S11300A095040000950400009504000095040000E8
S11300B0950400009504000095040000795E00009A
S11300C095040000950400009504000095040000C8
S11300D095040000950400009504000095040000B8
S11300E095040000950400009504000095040000A8
S11300F09504000095040000950400009504000098
S1130100B92800009504000095040000950400003F
S11301109504000095040000950400009504000077
S11301209504000095040000F928000095040000DF
S11301309504000095040000950400009504000057
S11301409504000095040000950400009504000047
S11301509504000095040000950400009504000037
S11301609504000095040000950400009504000027
S11303F0950400009504000095040000FFFFFFFF32
S1130400FFFFFFFFFFFFFFFFFFFFFFFFFEFFFFFFF9
S113041010B5054C237833B9044B13B10448AFF33A
S113042000800123237010BD34CAFF1F00000000A8
S11304306CC9000008B5034B1BB103490348AFF373
S1130440008008BD0000000038CAFF1F6CC900000E
S113045072B605F019FE62B609490A4A0A4B9A4275
S1130460BEBF51F8040B42F8040BF8E70749084AE9
S113047000209142BCBF41F8040BFAE705F0BAFD35
S113048090C9000000C0FF1F34CAFF1F34CAFF1FF9
S1130490A4CFFF1FFFF7FEBF004870478CC70000C2
S11304A000487047208E320182B043F698235843A7
S11304B00190019B5A1E01920BB100BFF9E702B0F3
S11304C0704782B0C0EB00100190019B5A1E01924C
S11304D00BB100BFF9E702B0704710B542B1431E3B
S11304E00A44914204D011F8014B03F8014FF8E794
S11304F010BD30B572B183184FF0FF32984209D065
S113050010F8015B11F8014BA54214BF002202F060
S11305100102F3E7104630BD30B5164D03460C46D4
S11305202868696885B001AA03C2002BA97A917072
S113053028891080BFBF2D215B422170621CA8BF97
S1130540224619460A20013291FBF0F10029FAD122
S113055011700A2093FBF0F104AD00FB11332B441E
S113056013F80C3C02F8013D0B460029F2D1204659
S113057005B030BDA5C70000F0B5374E85B00346C1
S11305800C463068716801AD03C53089B17A2880A2
S1130590A970002001210A26C5B2AA4202D97143DA
S11305A00130F9E7002B04DA2D25601C25705B422D
S11305B015E013D1302121700AB9621C0BE0A31C91
S11305C02E2060701D46E81AC0B2824202D905F896
S11305D0011BF8E71A440023137039E020468B42CC
S11305E0B4BF01F1FF31194600270A26054691FBE5
S11305F0F6F105F8017B09B12846F7E7851C41703F
S113060081700A26284611460139C9B2FF290CD047
S113061093FBF6F70DF1100E06FB1733734413F832
S11306200C3C00F8013D3B46EEE7AA1A2E20511E71
S113063002F8010C0A225BB193FBF2F004AD02FB59
S113064010332B4413F80C3C01F8013D0346F2E748
S1130650204605B0F0BD00BFA5C70000F0B5124BA1
S113066087B002460E4601AC03F1100718685968BA
S1130670254603C50833BB422C46F7D11B782B70A3
S113068011463346090903F10103FBD1197002F045
S11306900F0106A80144120911F8141C03F8011DE6
S11306A0F5D1304607B0F0BDB0C7000041F23802C2
S11306B0084908B58B5843F478538B5002F018FB63
S11306C002F0DCFA02F06AF9034A137843F00103FA
S11306D0137008BD0070044050CAFF1F70B500F0CD
S11306E0030002F00DFF2D4B1B789B0755D503F03B
S11306F06BF82B4B10F0010003F59A7503F5257484
S113070003F57D7124D01A46181D42F8300BDA62C5
S113071003F15C029A6503F18802C3F8842003F1B3
S1130720B402C3F8B02003F1E002C3F8DC2003F5FF
S11307308672C3F8082100231A1DA818E850A018CF
S11307400A44E050CA502C33B3F5B07FF4D170BDE5
S11307501A4603F10C0642F8386BDA6203F16402BC
S11307609A6503F19002C3F8842003F1BC02C3F834
S1130770B02003F1E802C3F8DC2003F58A72C3F861
S1130780082100F10C03EA182A50E2180B44225005
S11307900B502C30B0F5B07FF3D170BD50CAFF1FA1
S11307A000C0FF1F2DE9F041764EB6B0747804F016
S11307B091FD640064B200280CBF204644F001009F
S11307C0C0B280EA500313F0010F7070354600F098
S11307D08C8310F001003CD0B01C04F013FE002305
S11307E08DF82730B28873884FF02C0E9DF82710AF
S11307F0654C072919D89DF8271004F59A700EFB4B
S113080001F12C2640580188994200F2C180878862
S113081039449942C0F2BC804188914200F2B880C8
S1130820C08801448A4239DDB2E0206801888B42E5
S1130830C0F07781868831448B4200F3728141880D
S11308408A42C0F06E81C08801448A4240F3B98173
S113085067E18DF827007188B0882C269DF8273031
S1130860072B00F242839DF82720474C724304F57E
S11308709A732C259A5813889942C0F02F8397882D
S11308803B44994200F32A8353889842C0F026835C
S1130890D2881344984240F3AB821FE39DF827307B
S11308A006FB034393F8BC32012B08D89DF827308C
S11308B09DF82700234493F854356BB909E09DF85B
S11308C027309DF8270006FB034393F8BC32022B24
S11308D002D100F03FFC01E000F04EFC9DF827300F
S11308E09DF8272022440AAD92F854652C2202FB7D
S11308F0034404F59A740FCC0FC50FCC0FC594E8CC
S1130900070085E807000A9B18889A885988DB88BD
S113091002440B4492B29BB216B1BDF8485001E0B8
S1130920BDF84C500095FF24019403F08EF920A9E2
S1130930164803F021FD2146144803F011FD2BA8AD
S113094003F0F6FB002003F0DBFB16B1BDF8480012
S113095001E0BDF84C0003F0DFFB0A9B0FA81C88E4
S11309609D8803F0DCFF0A99CB8849880134022270
S11309700B3B281A93FBF2F390FBF2F0194420444A
S11309800FAAAFE050CAFF1F00C0FF1FE8A100007C
S11309909DF82710AA4E0EFB01F106F525702C27B1
S11309A0405801888B42C0F0B580B0F804C061445F
S11309B08B4200F3AF8041888A42C0F0AB80C0888C
S11309C001448A4200F3A6809DF827209DF8273031
S11309D09C4807FB036307FB026293F8BC320133B4
S11309E003F0030382F8BC32FF2103F0B9FC9DF845
S11309F027309DF827209DF8275007FB026207FB4C
S1130A00036392F8BC2207FB0565303283F8A82201
S1130A1005F5257C05F529750FCDEE46AEE80F00EA
S1130A2095E807008EE807009CE80F0000F01EFC24
S1130A309DF8273007FB036696F8BC32DB075ED4CB
S1130A409DF8270000F098FB9DF827309DF827209B
S1130A50224415AD92F854652C2202FB034404F59C
S1130A609A740FCC0FC50FCC0FC594E8070085E826
S1130A700700159B18889A885988DB8802440B4420
S1130A8092B29BB2002E3FD0BDF874500095FF2463
S1130A90019403F0DAF820A96B4803F06DFC2146B9
S1130AA0694803F05DFC2BA803F042FB002003F02F
S1130AB027FB66B3BDF8740003F02EFB159B1AA840
S1130AC01C889D8803F02BFF1599CB884988013435
S1130AD002220B3B281A93FBF2F390FBF2F0194429
S1130AE020441AAA89B280B203F03AFF2BA803F07B
S1130AF025FB9DF88010544803F032FCF5E19DF885
S1130B00270000F027FB9FE7BDF87850BEE7BDF84B
S1130B107800D1E79DF827100131C9B28DF827106C
S1130B2064E6E06A01888B4221D3868831448B4293
S1130B301DDC41888A421AD3C08801448A4216DCEB
S1130B4002F042FE10F001014FF0FF0306D0002135
S1130B50019300914F234FF4A07204E08DE80A0042
S1130B604F224FF4A073084603F06FF8BDE1A06D67
S1130B7001888B420ED3868831448B420ADC41883B
S1130B808A4207D3C08801448A4203DC002003F070
S1130B90A7FAAAE1D4F8B00001888B4215D386885D
S1130BA031448B4211DC41888A420ED3C08801440F
S1130BB08A420ADC02F008FE013000F00300FFF76D
S1130BC08DFD002003F08CFA33E0D4F8080101888D
S1130BD08B4213D3868831448B420FDC41888A428E
S1130BE00CD3C08801448A4208DC2B7883F02002AD
S1130BF0C2F3401262F345132B701DE0D4F8DC00FD
S1130C0001888B4222D3868831448B421EDC418882
S1130C108A421BD3C08801448A4217DC002003F0B7
S1130C205FFA2B7883F01002C2F3001262F304130C
S1130C302B70012000F05CFD00F03BFB55E100BF90
S1130C4000C0FF1FC8A10000E8A10000D4F8840080
S1130C50A74F01888B42C0F04881858829448B4284
S1130C6000F3438143889A42C0F03F81C1880B441A
S1130C709A4200F33A8197F8AC30013303F003034E
S1130C80022087F8AC3000F033FD00238DF82730C4
S1130C909DF82730072B00F228819DF8273094F81F
S1130CA0AC2094484FF02C0808FB0343FF2183F841
S1130CB0BC229DF827309DF8272008FB024208FB40
S1130CC0034392F8BC22303283F8A82203F048FB95
S1130CD09DF8275008FB054505F5257E05F5297582
S1130CE00FCD6E460FC695E8070086E807009EE81C
S1130CF00F0000F0BBFA9DF8273008FB03482C25B1
S1130D0098F8BC3213F001030BBF9DF827209DF81F
S1130D102730D219DB1916BF012282F8543583F823
S1130D2054259DF827309DF8272005FB03452244D0
S1130D3005F59A7592F854850FCD20AE0FC60FCDE8
S1130D400FC695E8070086E80700209B18889A8854
S1130D505988DB8802440B4492B29BB2B8F1000F6D
S1130D6002D0BDF8A06001E0BDF8A4600096FF25A4
S1130D70019502F06AFF15A95F4803F0FDFA2946C0
S1130D805D4803F0EDFA2BA803F0D2F9002003F03C
S1130D90B7F9B8F1000F02D0BDF8A00001E0BDF82A
S1130DA0A40003F0B9F9209B25A81D889E8803F0B0
S1130DB0B6FD2099CB884988013502220B3B301AB5
S1130DC093FBF2F390FBF2F01944284425AA89B26C
S1130DD080B203F0C5FD2BA803F0B0F99DF85410C0
S1130DE0454803F0BDFA9DF827300133DBB24DE7E7
S1130DF09DF8273005FB034393F8BC32022B04D142
S1130E009DF8270000F0B8F90BE09DF8273005FBAA
S1130E10034393F8BC32032B03D19DF8270000F061
S1130E2099F99DF827309DF8272022442BAD92F89C
S1130E3054652C2202FB034404F59A740FCC0FC5AD
S1130E400FCC0FC594E8070085E807002B9B188892
S1130E509A885988DB8802440B4492B29BB216B13B
S1130E60BDF8CC5001E0BDF8D0500095FF240194AA
S1130E7002F0EBFE15A9204803F07EFA21461E4835
S1130E8003F06EFA20A803F053F9002003F038F9B8
S1130E9016B1BDF8CC0001E0BDF8D00003F03CF978
S1130EA02B9B30A81C889D8803F039FD2B99CB8897
S1130EB04988013402220B3B281A93FBF2F390FB7E
S1130EC0F2F01944204489B230AA80B203F048FDFC
S1130ED020A803F033F99DF854100CE69DF8273050
S1130EE00133DBB28DF82730B8E436B0BDE8F081C9
S1130EF000C0FF1FC8A10000E8A100002DE9F047D1
S1130F008F4B904D1F78FBB2EF79AB715F409AB075
S1130F107FD001238DF80A30DFF8348200238DF866
S1130F2009304FF02C099DF80930072B6FD89DF834
S1130F300A301F425ED09DF8094095F806E09DF8FE
S1130F400AC009FB048404F57D740FCC04AE0FC6FB
S1130F500FCC0FC694E8070086E80700049B1888A6
S1130F6059889A88DB881CEA0E0614BFBDF830E065
S1130F70BDF834E002440B44FF2492B29BB20194C6
S1130F80CDF800E002F061FE03A96F4803F0F4F924
S1130F9021466D4803F0E4F90FA803F0C9F80020D6
S1130FA003F0AEF816B1BDF8300001E0BDF834002E
S1130FB003F0B2F8049B09A81C889E8803F0AFFCD8
S1130FC00499CB884988013402220B3B301A93FBE5
S1130FD0F2F390FBF2F01944204489B209AA80B2DA
S1130FE003F0BEFC0FA803F0A9F89DF80C105648B6
S1130FF003F0B6F99DF80A305B00DBB28DF80A30D5
S11310009DF809300133DBB28DF809308BE7AB79F9
S1131010EB714E4B4E4F1E78103B1B7833432E7AA8
S113102087F85C355E4000F0878001238DF80A3034
S113103000238DF809304FF02C084FF0FF099DF87C
S11310400930072B75D89DF80A301E4264D09DF8EC
S1131050094097F85CE59DF80AC008FB047404F5A0
S11310609A740FCC0DF13C0AAAE80F000FCCAAE841
S11310700F0094E807008AE807000F9B1888598836
S11310809A88DB881CEA0E0414BFBDF85CE0BDF846
S113109060E0CDF8049002440B4492B29BB2CDF8C8
S11310A000E002F0D2FD0DF10B01274803F064F9D2
S11310B0FF21254803F054F903A803F039F8002070
S11310C003F01EF814B1BDF85C0001E0BDF8600047
S11310D003F022F80F9B14A81C88B3F804A003F0B3
S11310E01EFC0F99CB884988013402220B3BC0EBCC
S11310F00A0093FBF2F390FBF2F01944204489B206
S113110014AA80B203F02CFC03A803F017F89DF88E
S11311100B100D4803F024F99DF80A305B00DBB294
S11311208DF80A309DF809300133DBB28DF80930AF
S113113085E797F85C352B721AB0BDE8F08700BFDD
S113114042F00F4050CAFF1FE8A1000091F00F4089
S113115000C0FF1F064B07490344012283F85425AE
S11311600B7802FA00F01843C0B20870704700BF51
S113117000C0FF1F81F00F4010B50B4A0121137806
S113118001FA00F423EA04031370084B1C78137863
S1131190074A2343034110440B4014BF80F85415FD
S11311A080F8543510BD00BF81F00F4091F00F401E
S11311B000C0FF1F84B07FB508AC84E80F0003466D
S11311C000889A885988DB889DF84C4002440B4477
S11311D092B29BB214B1BDF8406001E0BDF8446026
S11311E00096FF25019502F030FD0DF10B011E481C
S11311F003F0C2F829461C4803F0B2F803A802F031
S113120097FF002002F07CFF14B1BDF8400001E01C
S1131210BDF8440008AE02F07FFF56F8143B304698
S11312209D881C8803F07BFB0899CB88498801348E
S11312300222281A0B3B90FBF2F093FBF2F32044BA
S11312401944324689B280B203F08AFB03A802F043
S113125075FF9DF80B10044803F082F804B0BDE854
S1131260704004B0704700BFE8A1000084B0F8B536
S113127006AC84E80F00848805880BA803F04FFBB4
S1131280069B01355F880226201A90FBF6F42C4455
S1131290DD8803F077F8A4B2281A90FBF6F0391829
S11312A00BAA204689B203F05BFBBDE8F84004B00A
S11312B070472DE9F04F0020B9B002F02DFF4FF434
S11312C0826002F01DFFA54AA54F1378099203F02E
S11312D01003002B4FF000050BBF4FF0A50A4FF091
S11312E0560A4FF056084FF0A5082E46A7F5B079D8
S11312F0099B1B7813F0200F9A4B0ABFA3EB8603BC
S113130033F826409C8B02F05FFA10F0010F59F875
S113131005C0954B00F0D280A3F5B0715A594959D4
S1131320ACF8004014800C80ACF80280A2F802A053
S1131330BCF806200232424403F5B0734A8009EB3C
S1131340050E16F803B0BEE80F0017AC0FC4BEE8D4
S11313500F000FC49EE8070084E80700BCF80000F3
S1131360BCF80420BCF80210BCF8063002440B445C
S113137092B29BB2BBF1000F02D0BDF87CE001E059
S1131380BDF880E0CDF800E0FF24019402F05DFC9C
S11313900DF12B01754802F0EFFF2146734802F06E
S11313A0DFFF0BA802F0C4FE002002F0A9FEBBF18F
S11313B0000F02D0BDF87C0001E0BDF8800002F00F
S11313C0ABFE179B1CA8B3F804B01C8803F0A7FA63
S11313D0179AD188528801340223C0EB0B000B39D1
S11313E090FBF3F091FBF3F12044114489B21CAA61
S11313F080B203F0B5FA0BA802F0A0FE5A4C9DF897
S11314002B105A4802F0ACFF594B2C4493F800B00F
S11314100FCC0DF1300EAEE80F000FCCAEE80F008C
S113142094E807008EE807000C9B4FF0010C188825
S113143059889A88DB880CFA06FC1CEA0B040244DF
S11314400B4414BFBDF850E0BDF854E0CDF800E003
S113145092B29BB24FF0FF0BCDF804B002F0F5FB53
S11314600DF12B01414802F087FF59463F4802F035
S113147077FF0BA802F05CFE002002F041FE14B1DD
S1131480BDF8500001E0BDF8540002F045FE0C9B8D
S113149011A81C88B3F804B003F041FA0C9AD1885F
S11314A05288013402230B39C0EB0B0091FBF3F19A
S11314B090FBF3F01144204411AADBE028495A5967
S11314C04959ACF8024054804C80ACF80080A2F832
S11314D000A0BCF804200232424403F5B0730A8031
S11314E009EB050E16F803B0BEE80F002DAC0FC4CF
S11314F0BEE80F000FC49EE8070084E80700BCF8AC
S11315000000BCF80420BCF80210BCF80630024409
S11315100B4492B29BB2BBF1000F02D0BDF8D4E0F1
S113152001E0BDF8D8E0CDF800E0FF24019402F01A
S11315308CFB0DF12B010D4802F01EFF21460B48D8
S113154002F00EFF0BA802F0F3FD002002F0D8FD1C
S1131550BBF1000F0ED0BDF8D4000DE050CAFF1F40
S113156094C2FF1F60C5FF1FF4C3FF1FE8A1000062
S113157042F00F40BDF8D80002F0CEFD2D9B32A8FA
S1131580B3F804B01C8803F0CAF92D9AD1885288A4
S113159001340223C0EB0B000B3990FBF3F091FBF9
S11315A0F3F12044114489B232AA80B203F0D8F98D
S11315B00BA802F0C3FD494C9DF82B10484802F0DB
S11315C0CFFE484B2C4493F800B00FCC0DF1880E9D
S11315D0AEE80F000FCCAEE80F0094E807008EE8E9
S11315E00700229B4FF0010C188859889A88DB88E1
S11315F00CFA06FC1CEA0B0402440B4414BFBDF8AD
S1131600A8E0BDF8ACE0CDF800E092B29BB24FF098
S1131610FF0BCDF804B002F018FB0DF12B0130489C
S113162002F0AAFE59462E4802F09AFE0BA802F0D8
S11316307FFD002002F064FD14B1BDF8A80001E0B4
S1131640BDF8AC0002F068FD229B27A81C88B3F803
S113165004B003F064F9229AD18852880134022339
S11316600B39C0EB0B0091FBF3F190FBF3F0114449
S1131670204427AA89B280B203F072F90BA802F0C1
S11316805DFD9DF82B101648174C02F069FEFF21F2
S1131690164802F065FE97F8283030333B752C234A
S11316A003FB064404F5257C04F529740FCCEE46AF
S11316B0AEE80F0094E807008EE8070001369CE8C6
S11316C00F00FFF7D3FD082E05F12C0507F12C07B9
S11316D07FF40EAE39B0BDE8F08F00BFF4C3FF1F36
S11316E0E8A1000042F00F4000C0FF1FC8A10000A5
S11316F070B5044688B0002002F00EFD4FF48260FD
S113170002F0FEFC012C02D0022C5CD073E03B4CB6
S11317103B48FF2104F58C7602F022FE0FCE6D4685
S11317200FC596E8070085E8070004F584730FCB1E
S113173004F1EC06FFF79AFD0FCE6D460FC596E84F
S1131740070085E8070004F1DC030FCB04F1100661
S1131750FFF78CFD0FCE6D460FC596E8070085E8B0
S1131760070004F1680694E80F00FFF77FFD0FCE31
S11317706D460FC596E8070085E8070004F1580395
S11317800FCB04F13C06FFF771FD0FCE6D460FC57C
S113179096E8070085E8070004F12C030FCBFFF758
S11317A065FD04F1C006FF21164802F0D9FD0FCEF5
S11317B06D460FC596E8070085E80700B03494E845
S11317C00F00FFF753FD0D4C0E48FF2102F0C8FD3A
S11317D094F8AC30303384F8983004F194060FCE8A
S11317E06D460FC596E8070085E80700843494E841
S11317F00F00FFF73BFD08B070BD00BF00C0FF1F26
S1131800E8A10000C8A100002DE9F04704469AB001
S1131810FEF74CFF0021204601F004F9B64A631E8E
S1131820002713F8014FECB1332C19D005D8312C13
S11318300BD0322C08BF0127F3E76D2C0BD0702C92
S113184005D0342C08BF0327EBE70027E9E711781C
S113185041F0100102E0117841F020011170E0E73D
S11318600227DEE7A44DA54E2B7843F002032B702C
S113187001F0AAFFFEF732FF012086F8AC70FFF7F3
S113188037FF96F8AC3006F2545703F0010E06F514
S113189025712C2000FB041204F807E00134082C05
S11318A082F82830F6D1FFF704FD954940F61D1063
S11318B000F0DCFF934B1F78FBB2EF79AB715F4014
S11318C000F0858001238DF80A3000238DF809305B
S11318D04FF02C084FF0FF099DF80930072B74D8FE
S11318E09DF80A301F4263D09DF8094095F806E040
S11318F09DF80AC008FB046404F57D740FCC0DF157
S11319003C0AAAE80F000FCCAAE80F0094E80700ED
S11319108AE807000F9B188859889A88DB881CEA94
S11319200E0414BFBDF85CE0BDF860E0CDF804908F
S113193002440B4492B29BB2CDF800E002F085F968
S113194003A9714802F018FDFF216F4802F008FD59
S113195004A802F0EDFB002002F0D2FB14B1BDF8A4
S11319605C0001E0BDF8600002F0D6FB0F9B14A8F8
S11319701C88B3F804A002F0D2FF0F99CB884988E1
S1131980013402220B3BC0EB0A0093FBF2F390FB01
S1131990F2F01944204489B214AA80B202F0E0FFA4
S11319A004A802F0CBFB9DF80C10574802F0D8FCB9
S11319B09DF80A305B00DBB28DF80A309DF80930DF
S11319C00133DBB28DF8093086E7AB79EB714F4B0D
S11319D01F78103B1B783B432F7A86F85C355F40B9
S11319E000F0878001238DF80A3000238DF8093038
S11319F04FF02C084FF0FF099DF80930072B75D8DC
S1131A009DF80A301F4264D09DF8094096F85CE5C1
S1131A109DF80AC008FB046404F59A740FCC0DF118
S1131A20100AAAE80F000FCCAAE80F0094E80700F8
S1131A308AE80700049B188859889A88DB881CEA7E
S1131A400E0414BFBDF830E0BDF834E0CDF80490C6
S1131A5002440B4492B29BB2CDF800E002F0F5F8D8
S1131A600DF10B01284802F087FCFF21264802F003
S1131A7077FC03A802F05CFB002002F041FB14B1E8
S1131A80BDF8300001E0BDF8340002F045FB049BD2
S1131A9009A81C88B3F804A002F041FF0499CB887C
S1131AA04988013402220B3BC0EB0A0093FBF2F39A
S1131AB090FBF2F01944204489B209AA80B202F0E2
S1131AC04FFF03A802F03AFB9DF80B100E4802F0FA
S1131AD047FC9DF80A305B00DBB28DF80A309DF8B4
S1131AE009300133DBB28DF8093085E796F85C35AF
S1131AF02B721AB0BDE8F08750CAFF1F00C0FF1F49
S1131B00111B000042F00F40E8A1000091F00F40CB
S1131B102DE9F047BB4D6E7A731C16F00106CCB06C
S1131B206B7240F0E8806C7803F0D4FB640064B21C
S1131B3000280CBF204644F00100C0B280EA5003E4
S1131B40DA07687040F1D78010F001003AD0A81C81
S1131B5003F058FC6B88AA888DF820602C269DF829
S1131B602010A94C072919D89DF8201004F59A7063
S1131B7071432C27405801888B42C0F0E181B0F8B2
S1131B8004E071448B4200F3DB8141888A42C0F057
S1131B90D781C08801448A423BDDD1E120680188B5
S1131BA08B42C0F09A82868831448B4200F395823E
S1131BB041888A42C0F09182C08801448A4240F33D
S1131BC0E5828AE28DF820006988A8882C279DF890
S1131BD02030072B00F28F809DF820308A4C7B4305
S1131BE004F59A722C26D25813889942C0F04E8478
S1131BF0B2F804E07344994200F34884538898424D
S1131C00C0F04484D2881344984240F3D28300F055
S1131C103DBC9DF8203007FB034393F8BC32012BF5
S1131C2000F2A7819DF820309DF82000234493F80A
S1131C305435002B40F0A881FFF78CFA9DF8203032
S1131C409DF8202022442BAE92F854752C2202FBDE
S1131C50034404F59A740FCC0FC60FCC0FC694E856
S1131C60070086E807002B9B18889A885988DB8828
S1131C7002440B4492B29BB2002F00F08881BDF85D
S1131C80CC600096FF24019401F0DFFF36A95F4881
S1131C9002F072FB21465D4802F062FB41A802F0AB
S1131CA047FA002002F02CFA002F00F07381BDF8EF
S1131CB0CC0002F031FA2B9B30A81C889E8802F0DD
S1131CC02EFE2B99CB884988013402220B3B301A13
S1131CD093FBF2F390FBF2F01944204430AA89B24A
S1131CE080B202F03DFE41A802F028FA9DF8D81017
S1131CF0464802F035FB464B1F78FBB2EF79AB71D7
S1131D005F4000F0898001238DF82230DFF8F880ED
S1131D1000238DF821304FF02C099DF82130072B3A
S1131D2078D89DF822301F425ED09DF8214095F866
S1131D3006E09DF822C009FB048404F57D740FCCF1
S1131D4041AE0FC60FCC0FC694E8070086E8070023
S1131D50419B188859889A88DB881CEA0E0614BFB0
S1131D60BDF824E1BDF828E102440B44FF2492B2FB
S1131D709BB20194CDF800E001F067FF09A9234864
S1131D8002F0FAFA2146214802F0EAFA36A802F0F3
S1131D90CFF9002002F0B4F916B1BDF8240101E036
S1131DA0BDF8280102F0B8F9419B46A81C889E881A
S1131DB002F0B5FD4199CB884988013402220B3BDE
S1131DC0301A93FBF2F390FBF2F01944204489B2E9
S1131DD046AA80B202F0C4FD36A802F0AFF99DF81D
S1131DE024100A4802F0BCFA9DF822305B00DBB2F2
S1131DF08DF822309DF821300133DBB28DF821308B
S1131E008BE700BF50CAFF1F00C0FF1FE8A10000FE
S1131E1042F00F40AB79EB71C34BC44F1E78103BBB
S1131E201B7833432E7A87F85C355E4000F03683A6
S1131E3001238DF8223000238DF821304FF02C0837
S1131E404FF0FF099DF82130072B75D89DF82230FB
S1131E501E4264D09DF8214097F85CE59DF822C0AD
S1131E6008FB047404F59A740FCC0DF1D80AAAE89F
S1131E700F000FCCAAE80F0094E807008AE80700D7
S1131E80369B188859889A88DB881CEA0E0414BF8C
S1131E90BDF8F8E0BDF8FCE0CDF8049002440B4432
S1131EA092B29BB2CDF800E001F0CFFE0DF1230118
S1131EB09F4802F061FAFF219D4802F051FA09A8F7
S1131EC002F036F9002002F01BF914B1BDF8F80055
S1131ED001E0BDF8FC0002F01FF9369B3BA81C880A
S1131EE0B3F804A002F01BFD3699CB88498801346D
S1131EF002220B3BC0EB0A0093FBF2F390FBF2F0DF
S1131F001944204489B23BAA80B202F029FD09A8F1
S1131F1002F014F99DF82310854802F021FA9DF887
S1131F2022305B00DBB28DF822309DF82130013382
S1131F30DBB28DF8213085E797F85C352B72ADE282
S1131F409DF82010794F714307F525704FF02C0848
S1131F50405801888B4220D3B0F804E071448B428E
S1131F601BDC41888A4218D3C08801448A421BDDA5
S1131F7013E09DF820309DF8200007FB034393F8FD
S1131F80BC32022B3FF458AEFFF7F6F856E6BDF824
S1131F90D06076E6BDF8D0008BE69DF820100131C4
S1131FA0C9B28DF82010DAE59DF820209DF8203084
S1131FB0604808FB037308FB027293F8BC320133D8
S1131FC003F0030382F8BC32FF2102F0C9F99DF843
S1131FD020309DF820209DF8206008FB027208FB49
S1131FE0037392F8BC2208FB0676303283F8A822E9
S1131FF006F5257C06F529760FCEEE46AEE80F00F1
S113200096E807008EE807009CE80F00FFF72EF91A
S11320109DF8203008FB037797F8BC32DB0704D423
S11320209DF82000FFF7A8F803E09DF82000FFF7D3
S113203091F89DF820309DF82020224420AE92F89B
S113204054752C2202FB034404F59A740FCC0FC67A
S11320500FCC0FC694E8070086E80700209B188879
S11320609A885988DB8802440B4492B29BB217B118
S1132070BDF8A06001E0BDF8A4600096FF240194BF
S113208001F0E3FD36A92A4802F076F921462848F2
S113209002F066F941A802F04BF8002002F030F893
S11320A017B1BDF8A00001E0BDF8A40002F034F8B7
S11320B0209B25A81C889E8802F031FC2099CB889F
S11320C04988013402220B3B301A93FBF2F390FB54
S11320D0F2F01944204425AA01E6E06A01888B4203
S11320E02AD3868831448B4226DC41888A4223D312
S11320F0C08801448A421FDC01F066FB10F0010134
S11321004FF0FF0306D00021019300914F234FF4B9
S1132110A07204E08DE80A004F224FF4A073084631
S113212001F093FDE7E500BF91F00F4000C0FF1FF1
S1132130E8A10000C8A10000A06D01888B420ED365
S1132140868831448B420ADC41888A4207D3C0889E
S113215001448A4203DC002001F0C2FFCBE5D4F83D
S1132160B00001888B4215D3868831448B4211DC40
S113217041888A420ED3C08801448A420ADC01F0B5
S113218023FB013000F00300FEF7A8FA002001F061
S1132190A7FF33E0D4F8080101888B4213D3868863
S11321A031448B420FDC41888A420CD3C0880144FD
S11321B08A4208DC2B7883F02002C2F3401262F3D7
S11321C045132B701DE0D4F8DC0001888B421BD32F
S11321D0868831448B4217DC41888A4214D3C088F4
S11321E001448A4210DC002001F07AFF2B7883F04E
S11321F01002C2F3001262F304132B700120FFF7E4
S113220077FAFFF756F876E5D4F88400A54E0188EE
S11322108B42FFF470AD878839448B423FF76BAD36
S113222043889A42FFF467ADC1880B449A423FF752
S113223062AD96F8AC30013303F00303022086F854
S1132240AC30FFF755FA00238DF82030B0469DF8E6
S11322502030072B3FF64FAD9DF8203094F8AC208A
S113226091484FF02C0909FB0343FF2183F8BC225A
S11322709DF820309DF8202009FB024209FB03430E
S113228092F8BC22303283F8A82202F069F89DF853
S1132290206009FB064606F5257E06F529760FCE55
S11322A06F460FC796E8070087E807009EE80F000F
S11322B0FEF7DCFF9DF8203009FB03492C2699F832
S11322C0BC3213F001030BBF9DF820209DF8203091
S11322D04244434416BF012282F8543583F85425FE
S11322E09DF820309DF8202006FB0346224406F585
S11322F09A7692F854950FCE15AF0FC70FCE0FC72D
S113230096E8070087E80700159B18889A8859887B
S1132310DB8802440B4492B29BB2B9F1000F02D0A5
S1132320BDF8747001E0BDF878700097FF2601963F
S113233001F08BFC36A95D4802F01EF831465B487B
S113234002F00EF841A801F0F3FE002001F0D8FEDF
S1132350B9F1000F02D0BDF8740001E0BDF87800B7
S113236001F0DAFE159B1AA81E889F8802F0D7FA9E
S11323701599CB884988013602220B3B381A93FB06
S1132380F2F390FBF2F0194430441AAA89B280B2F5
S113239002F0E6FA41A801F0D1FE9DF8D8104348B6
S11323A001F0DEFF9DF820300133DBB28DF82030E0
S11323B04DE79DF8203006FB034393F8BC32022B13
S11323C004D19DF82000FEF7D7FE0BE09DF82030E5
S11323D006FB034393F8BC32032B03D19DF8200082
S11323E0FEF7B8FE9DF820309DF8202022440AAE66
S11323F092F854752C2202FB034404F59A740FCC12
S11324000FC60FCC0FC694E8070086E807000A9BA6
S113241018889A885988DB8802440B4492B29BB28C
S113242017B1BDF8486001E0BDF84C600096FF2488
S1132430019401F00AFC36A91C4801F09DFF2146D5
S11324401A4801F08DFF41A801F072FE002001F04E
S113245057FE17B1BDF8480001E0BDF84C0001F08B
S11324605BFE0A9B0FA81C889E8802F058FA0A9902
S1132470CB884988013402220B3B301A93FBF2F3D8
S113248090FBF2F0194420440FAA28E49DF8203070
S11324900133DBB28DF82030FFF799BB4CB0BDE8B7
S11324A0F08700BF00C0FF1FC8A10000E8A1000022
S11324B084B010B502AC84E80F000D9A038811882B
S11324C099420FD38488234499420BDC5388428871
S11324D0934207D3C088104483424FF0FF30C8BFF3
S11324E0002000E00020BDE8104004B07047154B08
S11324F0F0B4A3F530720024002814BF1846104627
S1132500264600221346C5180AB12E7504E051F878
S11325102470FF5C1FB92A754FF0FF3200E02F755D
S11325200133032BEFD10134082CC67500F12C00C4
S1132530E7D1054B1B789B0702D5F0BCFEF7B9BE6B
S1132540F0BC7047F4C3FF1F50CAFF1F10B50A4CFC
S11325502478A40788B00DD58DE80F000A9B049356
S11325600B9B05930C9B069369460D9B07930020D8
S1132570FFF7BDFF08B010BD50CAFF1F10B50A4CCD
S11325802478A40788B00DD58DE80F000A9B049326
S11325900B9B05930C9B069369460D9B07930120A7
S11325A0FFF7A5FF08B010BD50CAFF1F2DE9F04F7B
S11325B09946414B1E7891B08A469046F6B230B99E
S11325C093F84F603D4D3F331B781E4300E03C4D74
S11325D000274AFA07F3DA075FFA87FC63D5394B19
S11325E0C5F824801B78C5F820909B075BD5AE46C0
S11325F0BEE80F0005AC0FC4BEE80F000FC49EE890
S1132600070084E80700059B188859889A88DB88A6
S113261016EA0C0414BFCE46C64603EB010B024473
S1132620FF23CDF800E092B201931FFA8BF301F07F
S11326300CFB0DF10F01244801F09EFEFF212248FE
S113264001F08EFE04A801F073FD002001F058FD96
S113265014B1BDF8340001E0BDF8380001F05CFDB0
S1132660059B0AA81C88B3F804B002F058F9059B2E
S1132670D988B3F802E0013402220B39C0EB0B0015
S113268091FBF2F190FBF2F07144204489B20AAA62
S113269080B202F065F904A801F050FD9DF80F1016
S11326A0094801F05DFE0137082F05F12C0590D192
S11326B011B0BDE8F08F00BF42F00F4034C1FF1FDE
S11326C0F4C3FF1F50CAFF1FE8A100001346054AC8
S11326D01278920704D50A4601460020FFF766BF28
S11326E0704700BF50CAFF1F1346054A127892076D
S11326F004D50A4601460120FFF758BF704700BFC2
S113270050CAFF1FF3B48DF8011018499DF82050EA
S11327109DF824409DF818709DF81C608DF80330D6
S11327208DF806508DF807408DF800008DF80220D2
S11327308DF804708DF805600023A1F530742C2504
S11327401DF803205A5405FB03400133082B80F87D
S11327502820F5D1064B1B789B0703D502B0F0BCAB
S1132760FEF7A7BD02B0F0BC704700BF54C5FF1F01
S113277050CAFF1F0E4A70B40023A2F530742C25F2
S113278040FA03F6F60744BF05FB0346995403F1E8
S1132790010348BF86F82810082BF1D1054B1B789C
S11327A09B0702D570BCFEF784BD70BC704700BFA8
S11327B054C5FF1F50CAFF1F00F0D6BA00F076BB05
S11327C082B0254BC003B0FBF3F0002301908DF8D9
S11327D00330019BB3F5803F07D3019B5B08019352
S11327E09DF803300133DBB2F1E71C4841F23802B3
S11327F0835843F001038350194B00221A609DF85B
S113280003001A4610B906225A600FE09DF80330FF
S11328100F2BDFBF9DF8033003F1FF33DB0003F020
S11328207803D4BF43F002037A2353600C4B019A1C
S11328309A601A6842F001021A601A6842F0C002F3
S11328401A60084B1960084B4FF08062C3F884216A
S11328505A6002B0704700BF40420F00007004404D
S1132860000004405CCAFF1F00E100E010B541F223
S11328703C020D4CA35843F40003A3500B4A1368C5
S1132880002313603C23584301380323C2F800019A
S1132890C2F80831064B5960064B4FF48032C3F836
S11328A084215A6010BD00BF0070044000700340D2
S11328B05CCAFF1F00E100E010B50D4CD4F80C31E8
S11328C0DB0714D5D4F8083123F00103C4F8083128
S11328D0084B5B689847D4F80C3143F00103C4F803
S11328E00C31D4F8083143F00103C4F8083110BDA9
S11328F0007003405CCAFF1F10B5064C23681B061A
S113290002D4054B1B689847236843F08003236077
S113291010BD00BF000004405CCAFF1F1B4991F9B1
S11329200030002814BF002003F0010010B560BB84
S1132930174B41F23C0043F2DD141A5842F0807206
S11329401A5041F20C001A5842F080721A50A3F542
S1132950704346F2BB3228209A6058619C61D8616A
S11329601A620C4808221A604FF4817343610A4BBF
S11329705A6922F020025A6140F2031202615A6934
S113298022F010025A61FF230B7010BD64CAFF1FAE
S1132990007004400090044000F00F4041F23802FF
S11329A0094908B58B5843F400738B500020FFF796
S11329B0B5FF064B40F203121A61054A536923F02E
S11329C01003536108BD00BF007004400090044030
S11329D000F00F40074A9368632888BF642043438C
S11329E06420B3FBF0F31362034B4FF440725A615B
S11329F0704700BF0080034000900440084941F242
S1132A00380210B58B5843F4007304468B500020F1
S1132A10FFF784FF2046BDE81040FFF7DBBF00BF8F
S1132A20007004402DE9F0410F4688B000F1FF38F2
S1132A300125002618F8014FECB1642C05D0722C46
S1132A4015D0632C08BF0126F4E74FF4E1310020D0
S1132A5002F072FF2A49002003F012F829490020ED
S1132A6003F00EF82849002003F00AF8E2E70135E4
S1132A7005F00305DEE72046294601F09DFF02F03C
S1132A80F5FB204601F02CFB002E30D001A802F00B
S1132A90C7FD204602F044FF30B31B49204602F034
S1132AA0EFFF029A1949204603F054F8039A184993
S1132AB0204603F04FF8049A1649204603F04AF8DA
S1132AC0059A1549204603F045F8069A134920460D
S1132AD003F040F8079A1249204603F03BF8019AA4
S1132AE01049204603F036F801A802F08CFD27B106
S1132AF0394640F61D10FFF7B9FE08B0BDE8F08175
S1132B00C1C700008CC70000CDC70000D0C70000BB
S1132B10D3C70000D6C70000D9C70000DCC7000037
S1132B20DFC70000E2C7000008B5882000F01CF9E8
S1132B308820BDE8084000F0B9B970B50021012033
S1132B4001F03AFFFF2000F00FF9FF2000F0AEF98A
S1132B50872000F05BFA00221146022002F066FE94
S1132B602D4A2E4B2E4E4FF482749463596941F4CE
S1132B708041596100204FF480419860596054634A
S1132B80596941F4005159614FF4005199604FF46F
S1132B908071586011635A6922F480525A61214A43
S1132BA0803314605D6945F001055D61012598601D
S1132BB05D6051605D6925F002055D611A4DA9668D
S1132BC0756925F08065756114615C6944F01004D1
S1132BD05C6151615C6924F020045C6110249C6098
S1132BE05860D1605C6924F008045C6191605C69A0
S1132BF024F004045C619161596921F04001596138
S1132C004FF4A071D1615A6942F080025A61802266
S1132C109A60586070BD00BF0090044000F00F40FF
S1132C2000F10F4000B0044000D0044008B54FF458
S1132C30E131002002F080FE0649002002F020FF6E
S1132C400549002002F01CFF04490020BDE80840AB
S1132C5002F016BFC1C700008CC70000CDC700003A
S1132C6010B50446002002F05BFE28B12146002086
S1132C70BDE8104002F004BF10BD00BF194941F285
S1132C8038028B5843F400638B50174A174B4FF4A8
S1132C9081711162586920F48070586151625869D9
S1132CA020F4007058619162586920F48060586182
S1132CB0D162586920F4006058611163586920F4A6
S1132CC0805058615163586920F4005058619163F1
S1132CD0586920F480405861D1635A6922F4004253
S1132CE05A6170470070044000B0044080F00F4007
S1132CF01A4941F238028B5843F480638B50184AC6
S1132D00184B4FF4A0711164586940F48030586135
S1132D105164586940F4003058619164586940F432
S1132D2080205861D164586940F4002058611165CD
S1132D30586940F4801058615165586940F4001096
S1132D4058619165586940F480005861D1655A69A9
S1132D5042F400025A6100229A70704700700440E5
S1132D6000A0044040F00F404D4941F2380210F0F9
S1132D70010F8B5843F400638B504A4A4A4B15BFEA
S1132D804FF480714FF482711160116015BF5A695C
S1132D905A6922F0010242F001025A6110F0020F56
S1132DA0404A15BF4FF480714FF4827151605160F5
S1132DB015BF5A695A6922F0020242F002025A61AE
S1132DC010F0040F374A15BF4FF480714FF482712D
S1132DD09160916015BF5A695A6922F0040242F069
S1132DE004025A6110F0080F2E4A15BF4FF4807187
S1132DF04FF48271D160D16015BF5A695A6922F0CB
S1132E00080242F008025A6110F0100F254A15BF5B
S1132E104FF480714FF482711161116115BF5A69C9
S1132E205A6922F0100242F010025A6110F0200F89
S1132E301C4A15BF4FF480714FF482715161516186
S1132E4015BF5A695A6922F0200242F020025A61E1
S1132E5010F0400F134A15BF4FF480714FF4827184
S1132E609161916115BF5A695A6922F0400242F09A
S1132E7040025A6110F0800F0A4A15BF4FF4807166
S1132E804FF48271D161D16115BF5A695A6922F038
S1132E90800242F080025A6100221A70704700BF1B
S1132EA00070044000B0044080F00F404D4941F2EE
S1132EB0380210F0010F8B5843F480538B504A4A68
S1132EC04A4B15BF4FF480714FF482711160116049
S1132ED015BF5A695A6922F0010242F001025A618F
S1132EE010F0020F404A15BF4FF480714FF4827105
S1132EF05160516015BF5A695A6922F0020242F0CA
S1132F0002025A6110F0040F374A15BF4FF4807162
S1132F104FF482719160916015BF5A695A6922F029
S1132F20040242F004025A6110F0080F2E4A15BF41
S1132F304FF480714FF48271D160D16015BF5A692A
S1132F405A6922F0080242F008025A6110F0100F88
S1132F50254A15BF4FF480714FF4827111611161DC
S1132F6015BF5A695A6922F0100242F010025A61E0
S1132F7010F0200F1C4A15BF4FF480714FF482717A
S1132F805161516115BF5A695A6922F0200242F019
S1132F9020025A6110F0400F134A15BF4FF480719C
S1132FA04FF482719161916115BF5A695A6922F097
S1132FB0400242F040025A6110F0800F0A4A15BFE5
S1132FC04FF480714FF48271D161D16115BF5A6998
S1132FD05A6922F0800242F080025A6100221A707B
S1132FE0704700BF0070044000C00440C0F00F40B0
S1132FF010B54278017081EA020301EA0304837088
S11330001340C4700371417010BD00BF144B41F2F2
S113301038024FF47851995041F234015A5842F031
S113302040025A5003F5F8334FF480719A7802F055
S11330307F029A700B4A9160D16040F22321916023
S1133040D160382258709A709A7802F097029A7078
S1133050DA7842F00202DA7080229A70704700BF78
S11330600070044000A0044082B000230193019B3F
S1133070312B03D800BF019B0133F7E702B070473F
S1133080074BD878064AC0B200BF8107F9D5D37878
S113309000F0010043F00203D37080F00100704798
S11330A000600640014B1871FFF7EABF006006405C
S11330B0024B1B790370FFF7E3BF00BF00600640BB
S11330C00C4BDA7842F00202DA709A7842F010027D
S11330D09A709A7842F0A0029A70DA784000C0B2EE
S11330E0012908BF40F0010042F00202DA701871B1
S11330F0FFF7C6BF006006402DE9F0418846002175
S1133100054616461F46FFF7DBFF10B900252C467F
S11331103CE0254C84F80480FFF7B2FF0028F5D08A
S1133120A3786D0045F0010543F00403EDB2A370EC
S11331302571FFF7A5FF05460028E7D0A378012FE6
S113314003F0E703A37019D03046FFF7B1FF023F45
S11331500023DCB2BC4203F1010806EB040003DAED
S1133160FFF7A6FF4346F4E70F4A937843F00803BA
S113317093700134E4B2FFF79BFF07E0A37843F0B8
S11331800803A3703046FFF793FF0024064B9A7898
S113319002F097029A700DB11B793355FFF764FF63
S11331A02846BDE8F08100BF0060064008B5002154
S11331B0FFF786FF034A937803F097039370FFF7B2
S11331C053FF08BD0060064070B50E46002114464A
S11331D0FFF776FF60B1013C751E34440A4EA542E8
S11331E008D015F8013F3371FFF74AFF0028F6D1E4
S11331F0002001E04FF0FF30034A937803F0970377
S11332009370FFF731FF70BD00600640F8B50E46BD
S1133210002117461C46FFF753FF08B9002012E0AF
S11332200D4D2E71FFF72CFF0028F7D0013C7E1EB8
S11332303C44A64207D016F8013F2B71FFF720FF4C
S11332400028F6D1EAE7044A937803F097039370D1
S1133250FFF70AFFF8BD00BF0060064013B502ACDB
S1133260012304F8012D2246FFF7D0FF02B010BD60
S1133270012341E710B40BB110BC3DE7184610BC64
S113328070472DE9F74F9DF8306080468B46144611
S11332909946002E60D00021FFF712FF00284CD081
S11332A02F4B0BEB0402DA46CBEB0A049245E4B253
S11332B02B4F0CD01AF8011B019219710093FFF7E0
S11332C0DFFE009B019A05460028EDD137E0BB786C
S11332D04FEA480848F0010843F004035FFA88F80D
S11332E0BB7087F80480FFF7CBFE054638B3BB7884
S11332F0012E03F0E703BB7017D04846FFF7D8FE52
S1133300023E0023DCB2B44203F1010709EB0400DE
S113331003DAFFF7CDFE3B46F4E7114A9378013414
S113332043F008039370E4B204E0BB7843F008036D
S1133330BB704846FFF7BCFE01E005460446084B57
S11333409A7802F097029A7015B11B7909F8043043
S1133350FFF78AFE284600E0304603B0BDE8F08F50
S113336000600640144A154841F23801535843F4AA
S113337020535350124B4FF482719961416941F0CB
S11333804001416141F23C00115841F40051115097
S1133390A2F5D0320B4911604FF03841D1604FF0A3
S11333A078411161084911604FF400725A60DA6083
S11333B09A601A611A6070470070044000F10F406F
S11333C000D0044001401F0000001F801FB5214BA6
S11333D0214A19685A631846DA6A0392039A12F06A
S11333E0805F1C4A06D1039A12F0F00FF4D0826B6E
S11333F00292F1E74FF08053D36211601146D36A11
S1133400144C13F0F00F02D08B6B0293F7E71420E7
S1133410FDF74AF8114B226863632146E36A01937E
S1133420019B13F0805F0B4B06D1019B13F0F00F4F
S1133430F4D08B6B0093F1E74FF08051D9621A609E
S11334401946DA6A12F0F00F02D08A6B0092F8E79C
S113345004B010BD00D00240280003081000030887
S11334601FB5214B214A19685A631846DA6A039238
S1133470039A12F0805F1C4A06D1039A12F0F00FEF
S1133480F4D0826B0292F1E74FF08053D362116063
S11334901146D36A144C13F0F00F02D08B6B0293D5
S11334A0F7E77820FDF700F8114B226863632146A3
S11334B0E36A0193019B13F0805F0B4B06D1019BE0
S11334C013F0F00FF4D08B6B0093F1E74FF08051C1
S11334D0D9621A601946DA6A12F0F00F02D08A6BC8
S11334E00092F8E704B010BD00D0024011000308B8
S11334F0290003087047014BD87A704766CAFF1F3A
S113350030B5964CA37A834293B000F05781944B24
S1133510944AA07219685A631D46DA6A0192019AA4
S113352012F0805F8E4A06D1019A12F0F00FF4D0A7
S1133530AA6B0092F1E74FF08053D36215461160F5
S1133540D16A874B11F0F00102D0AB6B0093F7E71F
S11335502478824A002C40F08F8002284FF4A07116
S113356026D003284FF0F00444D0012863D1D18041
S113357014817D4A19685A631846DA6A0392039AD9
S113358012F0805F764A06D1039A12F0F00FF4D05D
S1133590826B0292F1E74FF08053D36211601146BF
S11335A0D36A13F0F00F00F009818B6B0293F7E7F5
S11335B0F020D08011816D4A19685A631846DA6A7E
S11335C00592059A12F0805F654A06D1059A12F0B9
S11335D0F00FF4D0826B0492F1E74FF08053D36282
S11335E011601146D36A13F0F00F00F0E7808B6B83
S11335F00493F7E7D18014815D4A19685A63184629
S1133600DA6A0792079A12F0805F554A06D1079A40
S113361012F0F00FF4D0826B0692F1E74FF0805372
S1133620D36211601146D36A13F0F00F00F0C68024
S11336308B6B0693F7E71181D4804E4A19685A635D
S11336401846DA6A0992099A12F0805F444A06D150
S1133650099A12F0F00FF4D0826B0892F1E74FF060
S11336608053D36211601146D36A13F0F00F00F057
S1133670A5808B6B0893F7E7022829D003284AD04A
S113368001284FF050044FF0F00075D19180D080A4
S113369010815480344A19685A631846DA6A0B92C6
S11336A00B9A12F0805F2E4A06D10B9A12F0F00F9B
S11336B0F4D0826B0A92F1E74FF08053D362116029
S11336C01146D36A13F0F00F78D08B6B0A93F8E7A6
S11336D051809180F021D1801181244A19685A6364
S11336E01846DA6A0D920D9A12F0805F1C4A06D1D0
S11336F00D9A12F0F00FF4D0826B0C92F1E74FF0B8
S11337008053D36211601146D36A13F0F00F55D081
S11337108B6B0C93F8E751809180F021D18011815B
S1133720134A19685A631846DA6A0F920F9A12F00C
S1133730805F0B4A06D10F9A12F0F00FF4D0826B1F
S11337400E92F1E74FF08053D36211601146D36AB1
S113375013F0F00F32D08B6B0E93F8E766CAFF1F9D
S113376000D0024036000308C800010868000108C0
S113377008000108A80001085180D08010819480BD
S11337800F4A19685A631846DA6A1192119A12F0AC
S1133790805F0C4A06D1119A12F0F00FF4D0826BBC
S11337A01092F1E74FF08053D36211601146D36A4F
S11337B013F0F00F02D08B6B1093F8E713B030BD09
S11337C0A800010800D00240014B987A704700BF5E
S11337D066CAFF1F90422DE9F04182BF044610469D
S11337E022468B423EBF0C46194623465B4CE58875
S11337F026899542DDBF05F1FF3292B24FF0FF35C5
S113380000259E42D8BF06F1FF3366883244304417
S113381096B2A288D8BF9BB213449CB2504B1144B9
S1133820D8BF4FF0FF354F4A5A6388B0013587B28D
S11338301FFA81F8DA6A0792079A12F0F00F18BF9C
S11338409A6B079A02F47042B2F5405FF2D80020F6
S1133850FCF737FE47F01040414B40F4803058638A
S1133860DA6A0692069A12F0F00F18BF9A6B069A5B
S113387002F47042B2F5405FF2D80120FCF721FE59
S113388046F01042364B42F480325A63DA6A0592AB
S1133890059A12F0F00F18BF9A6B059A02F4704261
S11338A0B2F5405FF2D80120FCF70BFE2C4B2E4AF8
S11338B05A631A46D36A0493049B13F0F00F18BF9B
S11338C0936B049B03F47043B3F5405FF2D800207C
S11338D0FCF7F7FD48F01041214B41F48031596366
S11338E0DA6A0392039A12F0F00F18BF9A6B039AE4
S11338F002F47042B2F5405FF2D80120FCF7E1FD1A
S113390044F01042164B42F480325A63DA6A02924F
S1133910029A12F0F00F18BF9A6B029A02F47042E6
S1133920B2F5405FF2D80120FCF7CBFD0C4B0F4AF7
S11339305A631A46D36A0193019B13F0F00F18BF20
S1133940936B019B03F47043B3F5405FF2D80020FE
S1133950FCF7B7FD284608B0BDE8F08166CAFF1F32
S113396000D002402B0003802A0003802C00038037
S1133970F0B514466A4AD38816898342DDBF03F141
S1133980FF3080B24FF0FF3500258E428BB040F3FC
S1133990C480002D40F0C18083425588D6BF03F116
S11339A0FF3303469BB22B449EB293885D4A28445E
S11339B0CD185D4B87B2ADB25A63DA6A0392039AAB
S11339C012F0F00F18BF9A6B039A02F47042B2F52A
S11339D0405FF2D80020FCF774FD47F01040524BD2
S11339E040F480305863DA6A0492049A12F0F00FBB
S11339F018BF9A6B049A02F47042B2F5405FF2D891
S1133A000120FCF75EFD46F01042474B42F4803241
S1133A105A63DA6A0592059A12F0F00F18BF9A6B8E
S1133A20059A02F47042B2F5405FF2D80120FCF727
S1133A3048FD3D4B3D4A5A631A46D36A0693069B9A
S1133A4013F0F00F18BF936B069B03F47043B3F5A8
S1133A50405FF2D80020FCF734FD45F01045324BAE
S1133A6045F480355D63DA6A0792079A12F0F00F25
S1133A7018BF9A6B079A02F47042B2F5405FF2D80D
S1133A800120FCF71EFD284B5D631A46D36A089398
S1133A90089B13F0F00F18BF936B089B03F470435B
S1133AA0B3F5405FF2D80120FCF70BFD1E4B204A12
S1133AB05A631A46D36A0993099B1B4D13F0F00FFE
S1133AC018BF936B099B03F47043B3F5405FF1D8BF
S1133AD00020FCF7F6FC44F0C054134A296844F46F
S1133AE080346C631046D36A0293029B13F0805FA8
S1133AF00D4B06D1029B13F0F00FF4D0836B0193AE
S1133B00F1E74FF08052DA6219601946DA6A12F06E
S1133B10F00F02D08A6B0192F8E70BB0F0BD00BF42
S1133B2066CAFF1F2B00038000D002402A000380D6
S1133B302C0003802DE9F04F89B01D4613B2019388
S1133B4054000023C4F103040293431C80468946B5
S1133B5024B20693BDF90830019A934272DCBDF891
S1133B600860BDF80470C6EB090BC7EB08039BB2F1
S1133B701FFA8BFB594618462A460393FFF7F8FEB3
S1133B8007EB08039BB2594618462A460493C6EB32
S1133B90080AFFF7EDFE07EB09039BB21FFA8AFA46
S1133BA0194650462A460593FFF7E2FE59462A462F
S1133BB00398FFF7DDFEC7EB09039BB2504609EB00
S1133BC0060A19462A461FFA8AFA0793FFF7D0FE17
S1133BD02A4651460498FFF7CBFE08EB060B079BD9
S1133BE01FFA8BFB19462A465846FFF7C1FE2A46A0
S1133BF005995846FFF7BCFE2A4651460398FFF73D
S1133C00B7FE731C9BB2002C1AB204DA063404EB20
S1133C10830424B208E0019B0A34D31A013F04EB65
S1133C2083043BB224B20193019B09EB0301069B7D
S1133C30F0182A4689B280B2FFF79AFE029B01333C
S1133C40029387E709B0BDE8F08F82422DE9F04F77
S1133C5016461C4638BF02460546AA483CBF3546B0
S1133C6016468C420F4638BF0A46C1883CBF2746D9
S1133C7014460289A942DCBF01F1FF35ADB2BA4254
S1133C80D8BF02F1FF3791B0D8BFBFB28E42A4BFF4
S1133C9001F1FF36B6B29DF86C30BDF868A09442CD
S1133CA0A4BF02F1FF34A4B2002B00F0FE80AE42A8
S1133CB035BFA946B14633462B46BC4235BFB8464C
S1133CC0A046A346BB464945DCBF01F1FF311FFABC
S1133CD081F94245DCBF02F1FF321FFA82F8828883
S1133CE0418893449044884A0B44894487495163EA
S1133CF09BB21FFA89F91FFA8BFB1FFA88F8D16A65
S1133D000691069911F0F00F18BF916B069901F412
S1133D107041B1F5405FF2D800200393FCF7D1FB6A
S1133D20039B43F01042784B42F480325A63DA6AC0
S1133D300792079A12F0F00F18BF9A6B079A02F4D1
S1133D407042B2F5405FF2D80120FCF7BAFB49F0AB
S1133D5010426D4B42F480325A63DA6A0892089A30
S1133D6012F0F00F18BF9A6B089A02F47042B2F581
S1133D70405FF2D80120FCF7A4FB634B644A5A630A
S1133D801A46D36A0993099B13F0F00F18BF936B7B
S1133D90099B03F47043B3F5405FF2D80020FCF7AD
S1133DA090FB4BF01042584B42F480325A63DA6A6B
S1133DB00A920A9A12F0F00F18BF9A6B0A9A02F448
S1133DC07042B2F5405FF2D80120FCF77AFB48F06C
S1133DD010424D4B42F480325A63DA6A0B920B9ACA
S1133DE012F0F00F18BF9A6B0B9A02F47042B2F5FE
S1133DF0405FF2D80120FCF764FB434B454A5A6309
S1133E001A46D36A0C930C9B13F0F00F18BF936BF4
S1133E100C9B03F47043B3F5405FF2D8E71B751BAA
S1133E207C1C05FB04440020FCF74BFB0594364C3A
S1133E304AF01045059A344BB2B145F480336363BC
S1133E40E36A0D930D9B13F0F00F18BFA36B0D9B4A
S1133E5003F47043B3F5405FF2D80120FCF731FB63
S1133E60059B013B0593E5E74AF0C05242F48032DA
S1133E7019685A631846DA6A0F920F9A12F0805F33
S1133E80214A06D10F9A12F0F00FF4D0826B0E92F1
S1133E90F1E74FF08053D36211601146D36A13F0F7
S1133EA0F00F2CD08B6B0E93F8E74FF001082346EC
S1133EB02A4639462846CDF80480CDF800A0FFF7FD
S1133EC0C4FE2346324639463046CDF80480CDF848
S1133ED000A0FFF7BAFE3B46324639462846CDF8E5
S1133EE00480CDF800A0FFF7B0FECDF80480CDF833
S1133EF000A02346324621462846FFF7A6FE11B00D
S1133F00BDE8F08F66CAFF1F00D002402B0003807B
S1133F102A0003802C0003802DE9F04F89B08242EF
S1133F20BDF8484005943EBF0446104622468B42E5
S1133F303EBF0C46194623463F4CE58824898542FA
S1133F40DCBF05F1FF3080B28C42DCBF04F1FF31ED
S1133F5089B2AA42A4BF05F1FF3292B2A342A4BF20
S1133F6004F1FF339BB2824201D08B4206D101247B
S1133F700194059C0094FFF768FE59E0121A92B26E
S1133F805B1A15B29BB200B209B2002D1EB20290A8
S1133F90039105DC07D0524215B24FF0FF3B03E01A
S1133FA04FF0010B00E0AB46002E05DC06D05B426F
S1133FB01EB24FF0FF3302E0012300E03346B54266
S1133FC02F46B8BF374600247A1CA146A046069265
S1133FD00699A2B28A422BDC0793BDF808A0BDF86B
S1133FE00C30059A04931946A8445046FFF7C0FCC8
S1133FF01FFA88F1B1440FFA81F81FFA89F2B84523
S11340000FFA82F9079B07DDDA44C7EB01080FFAC0
S11340108AF10FFA88F80291B94507DDC7EB020966
S1134020049A1A4412B20FFA89F903920134CFE7C1
S113403009B0BDE8F08F00BF66CAFF1F2DE9F34148
S1134040054615489046C2881F4605EB080301EB58
S113405008069A42A8BF1A46731C0689009728B21C
S1134060C8EB00009E4220EAE070A8BF1E460C4642
S11340700B4692B280B2FFF74FFF21B2C8EB0101A9
S113408021EAE1710097B3B22A4689B22846FFF7C4
S113409043FF02B0BDE8F08166CAFF1F13B5064CAA
S11340A00139248901448DE80C008AB22346002199
S11340B0FFF7CBFD02B010BD66CAFF1F13B5074C56
S11340C00139E48801448DE80C008BB22246014694
S11340D00020FFF7BAFD02B010BD00BF66CAFF1F83
S11340E007B5064AFF211389D2888DE80300002111
S11340F00846FFF7AAFD03B05DF804FB66CAFF1F7C
S1134100014B5880704700BF80C5FF1F014B588882
S1134110704700BF80C5FF1F014B1880704700BF68
S113412080C5FF1F014B1888704700BF80C5FF1F63
S1134130014B1B680360704780C5FF1F014B026879
S11341401A60704780C5FF1F2DE9F041144612889C
S113415063887E4D80B2013A024496B289B2013B33
S1134160B0420B449BB282BF024630461646994287
S113417082BF0A4619461346EA88B242DCBF02F1FE
S1134180FF3296B22A899A42D8BF02F1FF336A8875
S11341901044324497B2AA88D8BF9BB213449DB24C
S11341A06B4B11446B4A5A6388B01FFA80F88EB285
S11341B0DA6A0092009A12F0F00F18BF9A6B009A14
S11341C002F47042B2F5405FF2D80020FCF779F9AE
S11341D048F010405E4B40F480305863DA6A019234
S11341E0019A12F0F00F18BF9A6B019A02F4704210
S11341F0B2F5405FF2D80120FCF763F947F01042B2
S1134200534B42F480325A63DA6A0292029A12F0F1
S1134210F00F18BF9A6B029A02F47042B2F5405F35
S1134220F2D80120FCF74DF9494B4B4A5A631A4620
S1134230D36A0393039B13F0F00F18BF936B039B94
S113424003F47043B3F5405FF2D80020FCF739F96A
S113425046F010413E4B41F480315963DA6A0492CE
S1134260049A12F0F00F18BF9A6B049A02F4704289
S1134270B2F5405FF2D80120FCF723F945F0104273
S1134280334B42F480325A63DA6A0592059A12F08B
S1134290F00F18BF9A6B059A02F47042B2F5405FB2
S11342A0F2D80120FCF70DF9294B2C4A5A631A461F
S11342B0D36A0693069B13F0F00F18BF936B069B0B
S11342C003F47043B3F5405FF2D80020FCF7F9F82B
S11342D01F4F002623881FFA86F8434533D900254B
S11342E06288ABB29A422CD92188A26801FB0323CD
S11342F0626813F8083003EB4303D018D35C1A0246
S11343004378DB0003F4FC6102F4784382780B43C6
S113431043EAD20343F0104343F480337B63FB6AE4
S11343200793079B13F0F00F18BFBB6B079B03F4B5
S11343307043B3F5405FF2D80120FCF7C2F80135B1
S1134340CEE70136C6E708B0BDE8F08166CAFF1FB4
S113435000D002402B0003802A0003802C0003803D
S1134360034B00315860034B18BF01211973704788
S113437080C5FF1F66CAFF1F014B1B7B0B70704774
S113438066CAFF1F014B5B685878704780C5FF1FE2
S11343902DE9F04F7E4F7B689C78944297B001D909
S11343A00020B9E2DC78A242FAD87A4E93F802806F
S11343B0347BC8EB02021FFA82F8774A002C00F023
S11343C0F38093F800A05B78B6F808900AF1FF3AFE
S11343D082441FFA8AFE013B70450B4488BF0446A1
S11343E09BB2B6F806A084BF7046A646994282BF27
S11343F00C4619462346F245DDBF0AF1FF3A1FFA7F
S11344008AFE4FF0FF3400249945DCBF09F1FF39DF
S11344101FFA89F3B6F80490B6F802A04944994407
S11344205E4B5044F244D8BF4FF0FF3485B21FFABC
S11344308AFA1FFA81FB1FFA89F95A63DA6A02922F
S1134440029A12F0F00F18BF9A6B029A02F47042AB
S1134450B2F5405FF2D80020FCF733F845F0104580
S11344604E4B45F480355D63DA6A0392039A12F089
S1134470F00F18BF9A6B039A02F47042B2F5405FD2
S1134480F2D80120FCF71DF84AF01042434B42F4E5
S113449080325A63DA6A0492049A12F0F00F18BF59
S11344A09A6B049A02F47042B2F5405FF2D801208C
S11344B0FCF707F8394B3A4A5A631A46D36A05930C
S11344C0059B13F0F00F18BF936B059B03F4704327
S11344D0B3F5405FF2D80020FBF7F3FF4BF0104137
S11344E02E4B41F480315963DA6A0692069A12F02F
S11344F0F00F18BF9A6B069A02F47042B2F5405F4F
S1134500F2D80120FBF7DDFF49F01042234B42F4BF
S113451080325A63DA6A0792079A12F0F00F18BFD2
S11345209A6B079A02F47042B2F5405FF2D8012008
S1134530FBF7C7FF194B1B4A5A631A46D36A089301
S1134540089B13F0F00F18BF936B089B03F47043A0
S1134550B3F5405FF2D80020FBF7B3FF002C7FF4E3
S11345601FAF337B03F0FF04002B00F00A817A684D
S1134570DFF8289051781378526812F808401B1B12
S1134580022493FBF4F44C43A4B20025EEE000BFF4
S113459080C5FF1F66CAFF1F2B00038000D00240A6
S11345A02A0003802C0003805C685B7814F808A060
S11345B0B6F804B082441FFA8AF4013BA0420B44CB
S11345C09BB288BF0546B6F806A084BF20462C4699
S11345D0994282BF0D4619462B46A2453589DDBF57
S11345E00AF1FF3A1FFA8AF44FF0FF394FF000093D
S11345F09D42DCBF05F1FF339BB2B6F802A05B44D9
S113460059441FFA83FBB54B5044A244D8BF4FF022
S1134610FF3985B21FFA8AFA8CB25A63DA6A0992B0
S1134620099A12F0F00F18BF9A6B099A02F47042BB
S1134630B2F5405FF2D80020FBF743FF45F0104588
S1134640A64B45F480355D63DA6A0A920A9A12F041
S1134650F00F18BF9A6B0A9A02F47042B2F5405FE9
S1134660F2D80120FBF72DFF4AF010429B4B42F495
S113467080325A63DA6A0B920B9A12F0F00F18BF69
S11346809A6B0B9A02F47042B2F5405FF2D80120A3
S1134690FBF717FF914B924A5A631A46D36A0C935D
S11346A00C9B13F0F00F18BF936B0C9B03F4704337
S11346B0B3F5405FF2D80020FBF703FF44F0104449
S11346C0864B44F480345C63DA6A0D920D9A12F0DE
S11346D0F00F18BF9A6B0D9A02F47042B2F5405F66
S11346E0F2D80120FBF7EDFE4BF010427B4B42F475
S11346F080325A63DA6A0E920E9A12F0F00F18BFE3
S11347009A6B0E9A02F47042B2F5405FF2D801201F
S1134710FBF7D7FE714B734A5A631A46D36A0F9359
S11347200F9B13F0F00F18BF936B0F9B03F47043B0
S1134730B3F5405FF2D80020FBF7C3FEB9F1000FD8
S11347403FF40FAF2CE6D9F82C301093109B13F0E4
S1134750F00F18BFD9F83830109B03F47043B3F549
S1134760405FF0D80120FBF7ACFE0135ABB2A342A9
S113477007D23B8843F0104343F48033C9F8343004
S1134780E1E77968DFF854B18D6888684FEA480238
S113479008F1010330F8029035F81330C9EB030334
S11347A023441FFA83F98B6833F802A08B689D5A5F
S11347B04D4A05F00705012303FA05F54FEADA0A25
S11347C0EDB24C4545D27B68DB6813F80A301D42D4
S11347D020D0538843F0104343F48033CBF8343073
S11347E0DBF82C301193119B13F0F00F18BFDBF89A
S11347F03830119B03F47043B3F5405FF0D80120C7
S11348000192FBF75EFE15F0800F019A19D16D003D
S1134810EDB21BE0138843F0104343F48033CBF82C
S11348203430DBF82C301293129B13F0F00F18BFC6
S1134830DBF83830129B03F47043B3F5405FF0D8D3
S1134840DDE70AF1010A1FFA8AFA01250134A4B24C
S1134850B7E7337B3BB17A685378127853435D1ED4
S1134860DFF8789019E07B685A7809EB02039BB271
S1134870F5E7D9F82C301393139B13F0F00F18BFFE
S1134880D9F83830139B03F47043B3F5405FF0D884
S11348900120FBF716FE0134A4B2AC420F4B07DA39
S11348A03B8843F0104343F48033C9F83430E0E7E5
S11348B03A88196842F0C05242F480325A6318466A
S11348C0DA6A1592159A12F0805F044A0ED1159A8D
S11348D012F0F00FF4D0826B1492F1E700D0024092
S11348E02A0003802C00038080C5FF1F4FF08053F3
S11348F0D36211601146D36A13F0F00F02D08B6BB0
S11349001493F8E7337B13B17B68187804E07B6871
S11349105B6813F80800013017B0BDE8F08F0E4B48
S113492070B50E4C59680138002310F8012F82B17C
S11349308D78AA420DD3CD78AA420AD8257B0DB131
S11349400A7804E04D688E78921BAA5C0132134405
S1134950EBE798B270BD00BF80C5FF1F66CAFF1F9A
S1134960F8B5137804460F4673B1084E551E7368A4
S113497015F8012F9B789A4206D320463946FFF753
S113498007FD204484B2F2E72046F8BD80C5FF1F2E
S1134990084B70B5064608460D46DC88FFF7BFFF96
S11349A0201A2A463146C0F34F00BDE87040FFF795
S11349B0D7BF00BF66CAFF1F2DE9F047834C86B0FE
S11349C0002640250F468046FEF7CCFCA660012059
S11349D06560FBF769FDA56001206660FBF764FD77
S11349E0A66032206560FBF75FFD794B794A5A6314
S11349F0DA6A0192019A12F0F00F18BF9A6B019AC9
S1134A0002F47042B2F5405FF2D80020FBF759FD82
S1134A10FF20FBF749FD704CB8F1000F40F0CC804B
S1134A206E4A6F4D13682360536863609368A36094
S1134A30674E287800F1FF395FFA89F9002835D0EC
S1134A406B7843F0004343F4403305F1020A736387
S1134A50F36A0293029B13F0F00F18BFB36B029B2F
S1134A6003F47043B3F5405FF2D80020FBF729FD4F
S1134A7009F102031D445246AA4214D012F8013B24
S1134A8043F0004343F480337363F36A0393039B5B
S1134A9013F0F00F18BFB36B039B03F47043B3F52B
S1134AA0405FF2D8E8E70AEB0905C2E70526A672DB
S1134AB0FEF726FD3846FEF723FD4FF6FF70FFF79D
S1134AC00FFB484AE38810880225181A314690FBE8
S1134AD0F5F000B2FFF738FB434AE38810886E21F3
S1134AE0181A90FBF5F0414D00B2FFF72DFB4FF47F
S1134AF0784201236A803E493E4A23734B206A6010
S1134B002373FFF745FF46F20C333B496B805A2071
S1134B10FFF73EFF3949B8F1000F0FD1FB074FF003
S1134B20AF000CD5FFF734FF3549BE20FFF730FF47
S1134B303449CD20FFF72CFF33490BE0A520FFF7C4
S1134B4027FF3249BE20FFF723FF3149CD20FFF76D
S1134B501FFF3049DC20FFF71BFF1D4B2E4A19684D
S1134B605A631846DA6A0592059A12F0805F184A69
S1134B7006D1059A12F0F00FF4D0826B0492F1E79B
S1134B804FF08053D36211601346D06A10F0F004E2
S1134B9002D0996B0491F8E76420FDF72FFF4FF4DE
S1134BA0FA60FBF781FC2046FFF79AFA3846FEF7D5
S1134BB0A7FC06B0BDE8F087184A194D13682360B6
S1134BC0536863609368A36032E700BF00F10F404D
S1134BD000D002401100038066CAFF1F88C5FF1F72
S1134BE0B6C60000A496000074C6000080C5FF1F6E
S1134BF08CC70000E8A10000E5C70000FEC7000064
S1134C000CC8000032C8000055C8000076C8000077
S1134C108DC800009CC800002900030894C5FF1F2C
S1134C2080C60000F0B585B0002405460F46104646
S1134C3001A91A4601940294ADF80C40FBF79CFCC0
S1134C400A4E04AB53FA84F3013413F80C2C736842
S1134C509B789A4206D328463946FFF799FB2844A5
S1134C6085B2EEE7002005B0F0BD00BF80C5FF1F90
S1134C702DE9F043164612787378A94C80B2013AB4
S1134C80024495B289B2013BA8420B449BB282BF55
S1134C90024628461546994282BF0A4619461346DB
S1134CA0E288AA42DCBF02F1FF3295B222899A421D
S1134CB0D8BF02F1FF33628810442A4497B2A28815
S1134CC0D8BF9BB213449CB2964B1144964A5A6384
S1134CD08FB01FFA80F88DB2DA6A0192019A12F04D
S1134CE0F00F18BF9A6B019A02F47042B2F5405F5C
S1134CF0F2D80020FBF7E5FB48F01040894B40F464
S1134D0080305863DA6A0292029A12F0F00F18BFE8
S1134D109A6B029A02F47042B2F5405FF2D8012015
S1134D20FBF7CFFB47F010427E4B42F480325A63CC
S1134D30DA6A0392039A12F0F00F18BF9A6B039A7F
S1134D4002F47042B2F5405FF2D80120FBF7B9FBE0
S1134D50744B764A5A631A46D36A0493049B13F03D
S1134D60F00F18BF936B049B03F47043B3F5405FDB
S1134D70F2D80020FBF7A5FB45F01041694B41F444
S1134D8080315963DA6A0592059A12F0F00F18BF60
S1134D909A6B059A02F47042B2F5405FF2D8012092
S1134DA0FBF78FFB44F010425E4B42F480325A63AF
S1134DB0DA6A0692069A12F0F00F18BF9A6B069AF6
S1134DC002F47042B2F5405FF2D80120FBF779FBA0
S1134DD0544B574A5A631A46D36A0793079B13F0F6
S1134DE0F00F18BF936B079B03F47043B3F5405F58
S1134DF0F2D80020FBF765FBDFF83891494F802497
S1134E0000254FF001083278737812FB03F39845BC
S1134E107368484A5B5D39DA1C421AD0B9F802302B
S1134E2043F0104343F480337B63FB6A0893089B8D
S1134E3013F0F00F18BFBB6B089B03F47043B3F57A
S1134E40405FF2D80120FBF73CFB012C16D064082C
S1134E5017E0B9F8003043F0104343F480337B6328
S1134E60FB6A0993099B13F0F00F18BFBB6B099BF6
S1134E7003F47043B3F5405FF2D8E3E70135EDB2D4
S1134E80802408F101081FFA88F8BCE71C42254B6E
S1134E90196820D0528842F0C05242F480325A63DA
S1134EA01846DA6A0B920B9A12F0805F1D4A06D1FB
S1134EB00B9A12F0F00FF4D0826B0A92F1E74FF0E4
S1134EC08053D36211601146D36A13F0F00F23D0DC
S1134ED08B6B0A93F8E7128842F0C05242F4803296
S1134EE05A631846DA6A0D920D9A12F0805F0D4AE1
S1134EF006D10D9A12F0F00FF4D0826B0C92F1E708
S1134F004FF08053D36211601146D36A13F0F00F4F
S1134F1002D08B6B0C93F8E70FB0BDE8F08300BFB1
S1134F2066CAFF1F00D002402B0003802A000380C2
S1134F302C00038080C5FF1F2DE9F04F374E002B56
S1134F4014BF1C46012473688BB092469A180692CB
S1134F5013F80A2004900132431E12FB04F21A448F
S1134F6073780393BDF80C3009910125012C019548
S1134F7013FB04F32A4D0CBF012702270B44B5F899
S1134F8000E0CDF800E0DB1B9BB292B2FEF75DFEC1
S1134F90E71B6B880793049DBBB24FF00009059390
S1134FA0069B1B785FFA89F293422FD9B368F168A4
S1134FB013F80A30099F0B444FF0000B13F80280DA
S1134FC0059BEB189BB20893039A5FFA8BF39A4202
S1134FD017D918F0800F0BD0059B0122FB18019202
S1134FE0079A00929BB2089A39462846FEF72DFE8E
S1134FF04FEA480827445FFA88F8BFB20BF1010B67
S1135000E2E72544ADB209F10109C9E7049BE41ABA
S1135010281980B20BB0BDE8F08F00BFB096000035
S113502080C5FF1F2DE9F04F85B0642A02900391DB
S11350301746BDF80C40BDF8085033D1AF1C01260B
S1135040BFB2A31DA11C4FF480689BB23A4689B23B
S113505028460196CDF80080FEF7F7FD04F1080319
S113506005F10E0221469BB292B238460196CDF864
S113507000803444FEF7E9FDA4B205F10F00334685
S11350803246214680B2FFF757FF05F1140033463C
S11350900022214680B2FFF74FFF05F11900334685
S11350A0002285E005F1020B05F10E094FF0010A1B
S11350B01FFA8BFB4AF21452A31DA11C1FFA89F993
S11350C08DE804049BB25A4689B22846A9EBD70856
S11350D004F10806FEF7B9FD1FFA88F84AF21453E2
S11350E0B6B20093CDF804A0334642462146584652
S11350F0FEF7ABFD1D2FCDF804A009D94FF4806352
S113510000934A46334621464046FEF79EFD25E07D
S11351100E2F8CBF4FF620534FF4004300934A46A2
S1135120334621464046FEF790FD092F16D805F177
S1135130190805F10F00274B012501951B880093E1
S11351401FFA88F833464246214680B2FEF77DFDB9
S113515061192B463A4689B240462BE04FF00109CB
S11351601C4BCDF8049005F114081B8800931FFA1A
S113517088F805F10F0033462146424680B2FEF717
S113518064FD4FF00A0A4C44B7FBFAF6F2B2A4B23B
S1135190B2FBFAF30AFB1322D2B24B462146404635
S11351A0FFF7CAFE0AFB167205F119004B46D2B28C
S11351B0214680B2FFF7C0FE0399029801311E30E8
S11351C001230B2289B280B205B0BDE8F04FFFF78E
S11351D0B3BE00BF80C5FF1F02292DE9F34109D8E2
S11351E0B9B302290388428835D18488C08823440E
S11351F0024430E000254FF6FF762A46AC46B0461E
S11352002C462B4600EB850730F825E07F88C64501
S113521073443C4403D3F44538BFF44600E0F046FD
S1135220B74203D3BA4238BF3A4600E03E4601359E
S1135230EFB2B942E6D8881EC8EB0303A41BC0B280
S1135240CCEB0303A41AB3FBF0F3B4FBF0F09BB272
S113525006E00A460B46B3FBF1F39BB2B2FBF1F056
S113526080B243EA004002B0BDE8F081154890F9ED
S113527000302BBB144A41F23803D15841F4005199
S1135280D150D15841F40061D15002F5C0424FF4DD
S1135290007353610D4B4FF4807199640C494B6951
S11352A023F480234B6140F20313936602F5322208
S11352B002F58072536923F080635361FF23037006
S11352C0704700BFA0C5FF1F0070044000B0044039
S11352D080F00F40034B18696FEA906000F0010002
S11352E0704700BF00F10F40344B93F9003070B5A4
S11352F001460BB903805FE0FFF7ECFF00B970BD16
S11353002F48C26A2E4B002A01DB00BFF9E7DE6892
S11353101D691A6842F001021A602A4ADA6002F131
S113532080421A614FF00042DA621A6822F00102E8
S11353301A60254A5A63D86A214A002801DB00BF53
S1135340F9E74FF00043D362936B02F552228032A7
S113535013691E4C13F4802F01D100BFF8E7184BDA
S11353601B4A5A63D86A164A002801DB00BFF9E7D2
S11353704FF00043D362936B98B223695B0301D46B
S113538000BFFAE70E4B134A5A631A46D46A0C4B11
S1135390002C01DB00BFF9E79A6B1C6844F00104A0
S11353A01C60DE601D611C6824F001041C60C0F3F5
S11353B0CB030B80C2F3CB034B8070BDA0C5FF1F92
S11353C000D00240060000389000048080F00F40B6
S11353D0D00004900000041007B521B9ADF8041002
S11353E0ADF8061002E0FFF7F7FE0190BDF80430B7
S11353F0002063F30F00BDF8063063F31F4003B0D1
S11354005DF804FBF8B5494E05460024E2B2FFF707
S113541061FF38B10A2C07D006EB8400FFF764FF64
S11354200134F3E70A2A7FD1404C0A212046FFF7D2
S1135430D3FF2085C0F30F406085FEF7C5F903282C
S113544070D8DFE800F0021A3654394B678DDE68F5
S1135450218D98681A695C687E4300FB01600244F0
S113546092FBF4F22A809A6958697A4300FB01217D
S1135470DA698B1893FBF4F337E02D4B678DDE6804
S1135480218D98685C6806FB07F200FB01201A690D
S11354900244284892FBF4F20089801A9A696880D1
S11354A058697A4300FB0121DA698B1893FBF4F302
S11354B037E01F4B678DDA68218D98681D4C5E6854
S11354C07A4300FB01201A690244E08892FBF6F259
S11354D0801A9A69288058697A4300FB0121DA69A5
S11354E08B18228993FBF6F3D31A6B801AE0104BC6
S11354F0678DDE68218D98681A695C687E4300FBBD
S11355000160024492FBF4F26A809A6958697A4312
S113551000FB0121DA698B18064A93FBF4F3D28865
S1135520D31A2B804FF0FF30F8BD00BF74CAFF1FA1
S1135530A0C5FF1F66CAFF1F2DE9F74FCB880D8951
S11355400C88B1F80A808E88B1F802B00093C8EBD9
S1135550030E631BC8EB0B07711B0EFB03F307FB66
S11355601133B0F800C01360038981880191C3EB43
S11355700C09C3EB010A09FB0EF10AFB1711516078
S1135580611B0AFB01FA711B09FB11AA0199C2F8FC
S113559008A001FB05F903FB1699009963430CFB72
S11355A015334B430BFB0939019B41880CFB06FC6B
S11355B003FB14CC08FB0C93D3604389B0F806902A
S11355C0C3EB010CC3EB09000CFB0EFE00FB17E759
S11355D01761671B7843771B0CFB1700506109FBAD
S11355E005F003FB1600634301FB1535009B4E4396
S11355F05D430BFB005509FB146408FB04549461E0
S113560003B0BDE8F08F30B505460FCD034C0FC491
S113561095E8070084E8070030BD00BFA4C5FF1F5C
S11356202DE9F041774ACAB051688046106802AB50
S113563003C305AD9068186000242C606C60AC60F6
S1135640FEF7C2F807462046FEF766FD1F20FEF768
S113565057FDFF216C48FEF783FE6C495020FFF78D
S113566097F96B496420FFF793F94FF6FF70FEF743
S113567047FD68498C20FFF78BF96749A020FFF7A5
S113568087F92046FDF73CFF4FF478430522BDF827
S11356900A10BDF80800FEF7D1FCFFF71BFE002836
S11356A000F09E80002608AB98190436FFF71CFE14
S11356B0C82EF8D1322108A8FFF78EFD05EB84032C
S11356C025F82400020C01345A80E4B2FFF702FEEC
S11356D006460028FAD1022C2FD0032C5AD0FEF70C
S11356E0FFFC3846FDF70CFF1F20FEF709FDFF21E4
S11356F04548FEF735FE45495020FFF749F947492B
S11357006420FFF745F94FF6FF70FEF7F9FC4149B5
S11357108C20FFF73DF94049A020FFF739F93046C6
S1135720FDF7EEFE4FF478430522BDF80E10BDF8E8
S11357300C00FEF783FC012452E0FEF7D1FC38464E
S1135740FDF7DEFE1F20FEF7DBFCFF212E48FEF7EF
S113575007FE2E495020FFF71BF931496420FFF75B
S113576017F94FF6FF70FEF7CBFC2A498C20FFF7A0
S11357700FF92949A020FFF70BF93046FDF7C0FEC9
S11357804FF478430522BDF81210BDF81000FEF75F
S113579055FC25E0FEF7A4FC3846FDF7B1FE1F20BA
S11357A0FEF7AEFCFF211848FEF7DAFD17496E201C
S11357B0FFF7EEF81B499620FFF7EAF84FF6FF7063
S11357C0FEF79EFC1849BE20FFF7E2F8FFF782FDC2
S11357D00028FBD06420FAF767FE0020FEF780FC67
S11357E06420FAF761FE032C7FF457AF4246294642
S11357F002A8FFF7A1FE4046FFF705FF4AB0BDE847
S1135800F08100BF80C70000E8A10000C5C8000007
S1135810E0C80000F0C8000003C9000011C900007E
S113582021C9000031C900003AC9000030B5144B49
S113583041F2380552065C5944F420645C5141F24B
S11358403C0502F000725C5942F0384244F4805442
S113585000F00F0089065C510243A3F5D83301F030
S11358608061114344F20104064A1C60D9601A6045
S113587003F5E8334FF400725A641A64DA6330BDF6
S11358800070044000001F800A4BDA6A42F00042B4
S1135890DA6211B940F0004001E040F00060586362
S11358A0DA6A002A01DB00BFFAE7024B986BC0B248
S11358B0704700BF00C002402DE9F041074688460A
S11358C015460024AC420AD0661CAB1B5942385D15
S11358D05941FFF7D9FF08F804003446F2E7BDE860
S11358E0F081F8B505460E4647180446BC4208D078
S11358F014F8010B611B8B1B59425941FFF7C4FF7C
S1135900F4E7F8BD28B9044B0448002918BF184629
S113591070470020704700BFA1CAFF1FA1CBFF1F23
S113592030B941F23403034AD05840F38020704721
S1135930002070470070044030B5264A0C2303FB56
S1135940002304460D4693E8070085B004AB03E941
S11359500700019B002B3AD014B1052C37D812E074
S11359601D4A4FF40071516041F234009160A2F578
S11359700052115841F48061115041F21000115845
S113598021F00F011150DA7814481549B1FBF5F1F3
S113599002F0F302DA7002781031C1F3443402F0F9
S11359A0E00222431A70C1F347125A70827A01F05E
S11359B01F0102F0E0021143002299729A706C22D6
S11359C0DA70084B4FF00042C3F880211A6005B02A
S11359D030BD00BFC0C5FF1F0090044000A00640BA
S11359E0001C4E0E00E100E0F0B5234D0C2404FB36
S11359F0005423896489C3F30903C4F30904A3424B
S1135A0002D904F2FF3401E003D2013CE31A9BB251
S1135A1001E040F2FF330C2444432E199A423689A4
S1135A20B6B226D8144B1B591BB300281FFA81FEAB
S1135A30124FCEEB060C18BF00278BB203EB0C04FD
S1135A40CEEB03039BB29A42A4B205D9C4F3090472
S1135A5011F8013B3B55F0E70C2358432B18324413
S1135A6092B21A812A58D37843F04003D3700120AC
S1135A70F0BD0020F0BD00BFC0C5FF1FA1CBFF1FBC
S1135A8010B40B465A1A13F8014B002CFAD192B2F7
S1135A9010BCFFF7A9BF0B4A0C2303FB0023988813
S1135AA0DB88C0B2DBB2984201D9FF3301E003D2F4
S1135AB0013B181A80B200E0FF20C0F1FF0080B261
S1135AC0704700BFC0C5FF1F70B50C46164621467F
S1135AD00020FFF7D5FF0028F9D019490020FFF76F
S1135AE0CFFF0028F9D0002406FA04F31B06E5B220
S1135AF00AD514490020FFF7C3FF0028F9D005F0A8
S1135B000303032B09D106E00F490020FFF7B8FF78
S1135B100028F9D0F3E7072D03D10134082CE3D191
S1135B2006E00A490020FFF7ABFF0028F9D0F4E7AC
S1135B3007490020FFF7A4FF0028F9D070BD00BF7B
S1135B4057C900005AC900005CC900005EC90000C2
S1135B50CDC7000030B585B000230D46144601932F
S1135B6002938DF80C3029460020FFF789FF0028A6
S1135B70F9D00C490020FFF783FF0028F9D001A9D0
S1135B802046FAF76BFD01460020FFF779FF002855
S1135B90F5D005490020FFF773FF0028F9D005B0C0
S1135BA030BD00BF60C90000CDC7000070B50C4611
S1135BB0164621460020FFF763FF0028F9D0194953
S1135BC00020FFF75DFF0028F9D0002406FA04F353
S1135BD01B04A5B20AD514490020FFF751FF002881
S1135BE0F9D005F00303032B09D106E00F49002087
S1135BF0FFF746FF0028F9D0F3E70F2D03D1013456
S1135C00102CE3D106E00A490020FFF739FF0028F1
S1135C10F9D0F4E707490020FFF732FF0028F9D054
S1135C2070BD00BF57C900005AC900005CC900001C
S1135C305EC90000CDC7000070B50C46164621466B
S1135C400020FFF71DFF0028F9D018490020FFF7B6
S1135C5017FF0028F9D0002416FA04F3E5B20AD598
S1135C6013490020FFF70CFF0028F9D005F00303C7
S1135C70032B09D106E00F490020FFF701FF00289C
S1135C80F9D0F3E71F2D03D10134202CE4D106E031
S1135C9009490020FFF7F4FE0028F9D0F4E707498A
S1135CA00020FFF7EDFE0028F9D070BD57C90000B1
S1135CB05AC900005CC900005EC90000CDC70000DD
S1135CC00C230E494343CA18CB589BB1D1889388FF
S1135CD089B29BB299420FD0D38809499BB200285C
S1135CE003F1010018BF002180B2DBB2D080C85C90
S1135CF0C0B270471846704700207047C0C5FF1FE8
S1135D00A1CAFF1F2DE9F8439846184B184C0C25DF
S1135D1005FB0035002818BF0024B5F80690174687
S1135D201FFA89F9FFF7B7FED4B1B8421BD300229A
S1135D30C01B93B2834216DC0025EE184E44F6B223
S1135D4011F805E0A65DB64508D10135AEB2B742FB
S1135D50F3D1A8F800300120BDE8F8830132E8E768
S1135D602046BDE8F8830020BDE8F883C0C5FF1FC6
S1135D70A1CAFF1F2DE9F84398461A4B1A4C17463F
S1135D800C2202FB0032002818BF0024B2F806904F
S1135D901FFA89F9FFF77FFEF4B1B8421FD34FF021
S1135DA0000EC01B1FFA8EF3834218DC0025EE1888
S1135DB04E44F6B24A5DA65D964208D10135AAB2B8
S1135DC09742F4D1A8F800300120BDE8F8833F2AB7
S1135DD0F4D00EF1010EE5E72046BDE8F88300207B
S1135DE0BDE8F883C0C5FF1FA1CAFF1FF8B5154E53
S1135DF005461446FFF74FFE0C2202FB0562002DF8
S1135E00D288114B18BF0023A04292B2374616D352
S1135E10ABB10846C1EB020E461AB6B2B44206D97B
S1135E200EEB0006F6B29E5D00F8016BF4E70C235E
S1135E30144403FB0575A4B2EC800120F8BD0020D6
S1135E40F8BD00BFC0C5FF1FA1CAFF1F10B504469F
S1135E50FFF721FE88420AD3064B0C2000FB0430D6
S1135E60C38811FA83F189B2C180012010BD0020DA
S1135E7010BD00BFC0C5FF1F1F4A1379DBB29906CE
S1135E801ED51E498B88CA88D8B2D3B2984203D98A
S1135E9003F1FF02131A02E003D2013B1B1A9BB267
S1135EA05BB18B889BB25A1C92B28A80124A144905
S1135EB0D279DBB2D2B2CA5470470F4BDB79704748
S1135EC013F0C00F16D00D4908894B8980B29BB2DC
S1135ED098420BD04B899BB2581C80B24881C3F3C3
S1135EE009030849CB5CDBB2D3717047D37803F064
S1135EF0BF03D370704700BF00A00640C0C5FF1F9A
S1135F00A1CAFF1FA1CBFF1F1FB5174C0C2303FB16
S1135F10004494E8070004AB03E9070001980379FF
S1135F20DBB29A0610D5A388E288D9B2D3B29942DB
S1135F3003D903F1FF02531A02E012D2013B5B1AA8
S1135F409BB273B9C3790CE013F0C00F09D0BDF84C
S1135F500C30BDF80E209A4202BFC37803F0BF0391
